:040000008A11FD2F35
:100E34007030831603138F04FC308F050F150800E0
:100E44008A111A278A11831603138501FF3086003D
:100E54008312031385018601F301F4018618742FAC
:100E64001A30F100F830F000F00B362FF10B362F6A
:100E74000000831203138618742F051085140511BE
:100E84000530F3000030F4007408803AFF0080302D
:100E94007F02031D4F2F01307302031C6F2F0B3091
:100EA400F2002630F1006630F000F00B572FF10B02
:100EB400572FF20B572F5E2FFF30F3070318F40A56
:100EC400FF30F4077408803AFF0080307F02031D6E
:100ED4006D2F013073020318512F8312031305146D
:100EE400851005110619B82F1A30F100F830F000FA
:100EF400F00B7A2FF10B7A2F0000831203130619DB
:100F0400B82F0510851405110530F3000030F400E6
:100F14007408803AFF0080307F02031D932F013054
:100F24007302031CB32F0B30F2002630F10066303D
:100F3400F000F00B9B2FF10B9B2FF20B9B2FA22F9A
:100F4400FF30F3070318F40AFF30F4077408803AFB
:100F5400FF0080307F02031DB12F0130730203189C
:100F6400952F831203130510851005158619302F4C
:100F74001A30F100F830F000F00BBE2FF10BBE2F49
:100F84000000831203138619302F051085140511F0
:100F94003C30F3000030F4007408803AFF008030E5
:100FA4007F02031DD72F01307302031CF72F0B3070
:100FB400F2002630F1006630F000F00BDF2FF10B69
:100FC400DF2FF20BDF2FE62FFF30F3070318F40AAD
:100FD400FF30F4077408803AFF0080307F02031D5D
:100FE400F52F013073020318D92F83120313051050
:0C0FF40085100515302F83018A11222F73
:02400E0010CED2
:00000001FF
